:0400000007EF00F016
:0A0008004082F3ED0FF09BEF16F0BD
:1008000000010000000A00000064000000E803008E
:100810000010270000A086010040420F008096983B
:100820000000E1F50500CA9A3B00803F002041002E
:10083000C842007A44401C4650C347247449971864
:100840004BBCBE4C6B6E4E03155079AD60F34971D5
:1008500000803FCDCC3DD7233C12833AB7D138C678
:100860002737388635C0D633CC2B32708930E7DB5A
:100870002EE53C1E42A20D44697374616E6369618A
:0F0880003A2000252E326620636D2020200000D4
:10089000A30E0001AF6F000E0001B06FF5D3250E5F
:1008A0000001C219D8B407D09FC0D9FFA0C0DAFF99
:1008B000C2C0DFFFE6D3000E0001B26F000EB16FC1
:1008C000A1C0F6FFA2C0F7FF0800F5502E0AD8A479
:1008D00039D00001B28D0001A14BA22B000E000106
:1008E000BE6F000EBD6F23D0BDC06EF0BEC06FF0F6
:1008F000000E0001716F0A0E706F65EC16F0A1C05A
:10090000F6FFA2C0F7FF0800F55000016E27000EA9
:1009100000016F23D00E00016E250001BD6FFF0E98
:1009200000016F210001BE6F0001A14BA22BA1C0ED
:10093000F6FFA2C0F7FF0800F55012EC17F0D8A0A0
:100940000CD0D2D7000E0001BE6F000EBD6F0001AB
:10095000B28903D00001B28513D0A1C0F6FFA2C0B6
:10096000F7FF0001A14BA22B0800F5CFC2F0000158
:10097000C251000AD8B497D3660AD8B4EBD784D34F
:10098000070E0001B215D8B427D30001B2A905D0D3
:10099000000E0001BE6F060EBD6FAFC0D9FFB0C024
:1009A000DAFFDECFBFF0DECFC0F0DDCFC1F0030E47
:1009B0000001AF27000EB0230001C1AF11D0BFC0AE
:1009C00060F0C0C061F0C1C062F0B4EC16F060C06D
:1009D000BFF061C0C0F062C0C1F0030E0001B113EE
:1009E000000E0001B86F000EB76F0001BF5100018B
:1009F000C0110001C111D8B49BD0820E0001A66FB6
:100A0000FF0E0001A76FBFC0A8F0C0C0A9F0C1C011
:100A1000AAF0C2C0ABF0100E06D00001D890AB33E4
:100A2000AA33A933A833E82EF8D70001A851000152
:100A3000A6250001B76F000E0001A7210001B86FC5
:100A40000001B707D8A0B807B7C06EF0B8C06FF004
:100A5000000E0001716F030E706F65EC16F06EC032
:100A6000B7F06FC0B8F0B7C066F0B8C067F0000E5E
:100A70000001696F0A0E686FE1EC12F066C0B7F012
:100A800067C0B8F00001B8AF04D00001B707D8A024
:100A9000B8070001B75100085AEC08F083C0B9F05C
:100AA00084C0BAF085C0BBF0B9C074F0BAC075F0AC
:100AB000BBC076F0BFC077F0C0C078F0C1C079F09D
:100AC000A6EC10F074C0B9F075C0BAF076C0BBF0F7
:100AD000B9C060F0BAC061F0BBC062F0000E0001A6
:100AE000636F800E0001646F3F0E0001656F7DEC47
:100AF00012F00001D8B005D00001B707D8A0B807A0
:100B000017D0B9C060F0BAC061F0BBC062F0000E8F
:100B10000001636F200E0001646F410E0001656FDC
:100B20007DEC12F00001D8A003D00001B74BB82B28
:100B30000001BEBF08D00001BE511DE10D0E000135
:100B4000BD5DD8B018D0BFC08DF0C0C08EF0C1C0A0
:100B50008FF00001BD51BDEC0AF083C090F084C05D
:100B600091F085C092F019EC0CF08DC0BFF08EC0F2
:100B7000C0F08FC0C1F00001B8BF08D00001B8516B
:100B80002AE10A0E0001B75DD8B025D00001BF519F
:100B90000001C0110001C111D8B463D0BFC08AF0F8
:100BA000C0C08BF0C1C08CF055EC11F000018A512F
:100BB00000018B1100018C1100018D11D8A451D0BE
:100BC0000001B8BF4ED00001B85105E1020E00018E
:100BD000B75DD8A046D0B9C060F0BAC061F0BBC064
:100BE00062F0700E0001636F890E0001646F400EA9
:100BF0000001656F7DEC12F00001D8B003D0000158
:100C0000F70E02D00001F80EB727FF0EB82300013F
:100C1000B7515AEC08F083C0B9F084C0BAF085C06F
:100C2000BBF0BFC060F0C0C061F0C1C062F0B9C02D
:100C300063F0BAC064F0BBC065F060EC0EF060C059
:100C4000B3F061C0B4F062C0B5F063C0B6F0000E9E
:100C50000001BF6F000E0001C06F000E0001C16FE8
:100C600033D0BFC08AF0C0C08BF0C1C08CF055EC4F
:100C700011F08AC0B3F08BC0B4F08CC0B5F08DC059
:100C8000B6F0BFC099F0C0C09AF0C1C09BF0B3C02D
:100C900068F0B4C069F0B5C06AF0B6C06BF03BEC68
:100CA00015F068C09CF069C09DF06AC09EF0A6EC8B
:100CB00015F099C0BFF09AC0C0F09BC0C1F0000E03
:100CC0000001B86F000EB76F010E0001C26F0A0E6F
:100CD0000001C219D8B41ED00001C251040D010E8A
:100CE000F324F66E080EF420F76E0900F5500001AB
:100CF000B35D0900F5500001B4590900F550000139
:100D0000B5590900F5500001B659D8A003D000012B
:100D1000C22BDDD7030E0001B1150001A66F000E36
:100D20000001B2150001A76F0001A6510001A71133
:100D3000D8B453D09FC0D9FFA0C0DAFF2D0E49D040
:100D4000B3C060F0B4C061F0B5C062F0B6C063F08B
:100D50000001C251040D010EF324F66E080EF420BA
:100D6000F76E0900F5CF64F00900F5CF65F00900D2
:100D7000F5CF66F00A00F5CF67F040EC13F060C0E5
:100D8000B9F061C0BAF062C0BBF063C0BCF0B9C0DA
:100D900060F0BAC061F0BBC062F0BCC063F00A0E84
:100DA0000001646F000E656F000E666F000E676FC6
:100DB000F1EC14F060C0B9F061C0BAF062C0BBF0F1
:100DC00063C0BCF00001B951300F9FC0D9FFA0C073
:100DD000DAFFDF6E00019F4BA02B0001C20700016C
:100DE000C229D8B40ED0ACD79FC0D9FFA0C0DAFFBB
:100DF000300EDF6E00019F4BA02B0001B707D8A07B
:100E0000B8070001B8BF07D00001B851EDE10001FB
:100E1000B705D8B0E9D70001BEBF0CD00001BE5164
:100E200005E1090E0001BD5DD8A004D0080E000147
:100E3000C26F02D0BDC0C2F00001C2510001BD5F4F
:100E4000000E0001C2BFFF0E0001BE5B0001C251D7
:100E50000001D8B409D09FC0D9FFA0C0DAFF2E0E80
:100E6000DF6E00019F4BA02B0001C2515AEC08F02D
:100E700083C0ACF084C0ADF085C0AEF0BFC077F0E9
:100E8000C0C078F0C1C079F0ACC074F0ADC075F0EE
:100E9000AEC076F0A6EC10F074C08AF075C08BF08E
:100EA00076C08CF055EC11F08AC0B3F08BC0B4F072
:100EB0008CC0B5F08DC0B6F074D0B3C060F0B4C0D3
:100EC00061F0B5C062F0B6C063F00001C251040D1C
:100ED000010EF324F66E080EF420F76E0900F5CF2C
:100EE00064F00900F5CF65F00900F5CF66F00A005F
:100EF000F5CF67F040EC13F060C0B9F061C0BAF014
:100F000062C0BBF063C0BCF0B9C060F0BAC061F0B1
:100F1000BBC062F0BCC063F00A0E0001646F000E3B
:100F2000656F000E666F000E676FF1EC14F060C025
:100F3000B9F061C0BAF062C0BBF063C0BCF00001A0
:100F4000B951300F9FC0D9FFA0C0DAFFDF6E00019A
:100F50009F4BA02BB3C060F0B4C061F0B5C062F08D
:100F6000B6C063F00001C251040D010EF324F66E09
:100F7000080EF420F76E0900F5CF64F00900F5CFF4
:100F800065F00900F5CF66F00A00F5CF67F0F1ECE7
:100F900014F060C0B3F061C0B4F062C0B5F063C0DB
:100FA000B6F00001C2070001C229D8B40ED085D71F
:100FB0009FC0D9FFA0C0DAFF300EDF6E00019F4B4B
:100FC000A02B0001BD07D8A0BE070001BD51000144
:100FD000BE11D8B459D0ECD70001BD510001BE11EB
:100FE000D8A40DD00001B3510001B4110001B51116
:100FF0000001B611D8A403D00001BD4BBE2B800E5A
:101000000001C2BF7F0E0001A66F0001BD510001AB
:10101000C25D0001BE51800A0001A659D8B003D0BC
:10102000BDC0C2F018D00001BE51800A0001A66FF9
:101030000001C2510001BD5D800E0001C2BF7F0EE4
:101040000001A659D8B007D00001C2510001BD6F00
:10105000BE6BBDBFBE07030E0001B1150001A66F38
:10106000000E0001B2150001A76F0001A65100019A
:10107000A711D8B409D09FC0D9FFA0C0DAFF2D0EA8
:10108000DF6E00019F4BA02BA1C0F6FFA2C0F7FFAF
:101090000001A14BA22B0800F5CFC2F00001C25104
:1010A000D8A44FEF04F09FC0D9FFA0C0DAFF000E14
:1010B000DF6E12000001896F000189AF30D100019D
:1010C000896D00018951800A120FD8A0ACD0000EA2
:1010D0000001716F030E706F000E0001696F0A0E40
:1010E000686F000E0001636F640E626F000189512A
:1010F0000001606F616B60BF6107A0EC14F060C01D
:1011000066F061C067F0E1EC12F0090E000166259F
:1011100000016E6F000E0001672100016F6F65EC2A
:1011200016F0500E00016E25F66E080E00016F21BC
:10113000F76E0900F5CF77F00900F5CF78F00A00D7
:10114000F5CF79F0000E0001696F640E686F000141
:1011500089510001666F676B66BF6707E1EC12F0AB
:10116000120E0001662500016E6F000E000167215E
:1011700000016F6F000E0001716F030E706F65EC60
:1011800016F0500E00016E25F66E080E00016F215C
:10119000F76E0900F5CF74F00900F5CF75F00A007D
:1011A000F5CF76F0A6EC10F074C086F075C087F02D
:1011B00076C088F086C074F087C075F088C076F07D
:1011C000000E0001716F030E706F000E0001636F5F
:1011D0000A0E626F000189510001606F616B60BF90
:1011E0006107A0EC14F060C06EF061C06FF065ECB8
:1011F00016F0500E00016E25F66E080E00016F21EC
:10120000F76E0900F5CF77F00900F5CF78F00A0006
:10121000F5CF79F0A6EC10F074C083F075C084F0BF
:1012200076C085F0120000018951800A750FD8A0A0
:1012300063D0000E0001696F0A0E686F00018951CA
:101240000001666F676B66BF6707E1EC12F0090E7D
:101250000001662500016E6F000E0001672100018C
:101260006F6F000E0001716F030E706F65EC16F06A
:10127000500E00016E25F66E080E00016F21F76E0C
:101280000900F5CF74F00900F5CF75F00A00F5CF2D
:1012900076F0000E0001716F030E706F000E0001FA
:1012A000636F0A0E626F000189510001606F616B0C
:1012B00060BF6107A0EC14F060C06EF061C06FF019
:1012C00065EC16F0500E00016E25F66E080E00015A
:1012D0006F21F76E0900F5CF77F00900F5CF78F0B0
:1012E0000A00F5CF79F0A6EC10F074C083F075C059
:1012F00084F076C085F0120000018951030D500E74
:10130000F324F66E080EF420F76E0900F5CF83F093
:101310000900F5CF84F00A00F5CF85F01200000136
:101320008951800A120FD8A0ACD0000E0001716F55
:10133000030E706F000E0001696F0A0E686F000ED9
:101340000001636F640E626F000189510001606FDC
:10135000616B60BF6107A0EC14F060C066F061C013
:1013600067F0E1EC12F0090E0001662500016E6FD6
:10137000000E0001672100016F6F65EC16F0290E69
:1013800000016E25F66E080E00016F21F76E090050
:10139000F5CF77F00900F5CF78F00A00F5CF79F0B6
:1013A000000E0001696F640E686F00018951000131
:1013B000666F676B66BF6707E1EC12F0120E000103
:1013C000662500016E6F000E0001672100016F6F3E
:1013D000000E0001716F030E706F65EC16F0290EA0
:1013E00000016E25F66E080E00016F21F76E0900F0
:1013F000F5CF74F00900F5CF75F00A00F5CF76F05F
:10140000A6EC10F074C086F075C087F076C088F046
:1014100086C074F087C075F088C076F0000E0001B9
:10142000716F030E706F000E0001636F0A0E626F22
:10143000000189510001606F616B60BF6107A0EC22
:1014400014F060C06EF061C06FF065EC16F0290E0C
:1014500000016E25F66E080E00016F21F76E09007F
:10146000F5CF77F00900F5CF78F00A00F5CF79F0E5
:10147000A6EC10F074C083F075C084F076C085F0DF
:10148000120000018951800A750FD8A063D0000EA8
:101490000001696F0A0E686F000189510001666FD3
:1014A000676B66BF6707E1EC12F0090E0001662565
:1014B00000016E6F000E0001672100016F6F000ECA
:1014C0000001716F030E706F65EC16F0290E0001BC
:1014D0006E25F66E080E00016F21F76E0900F5CF3C
:1014E00074F00900F5CF75F00A00F5CF76F0000E24
:1014F0000001716F030E706F000E0001636F0A0E22
:10150000626F000189510001606F616B60BF61070C
:10151000A0EC14F060C06EF061C06FF065EC16F0E6
:10152000290E00016E25F66E080E00016F21F76E80
:101530000900F5CF77F00900F5CF78F00A00F5CF74
:1015400079F0A6EC10F074C083F075C084F076C01A
:1015500085F0120000018951030D290EF324F66E67
:10156000080EF420F76E0900F5CF83F00900F5CFDF
:1015700084F00A00F5CF85F0120000018C6F6D0E2B
:1015800000018C65BAD0000E0001716F030E706F00
:10159000000E0001696F0A0E686F000E0001636F94
:1015A000640E626F8CC060F00001616BA0EC14F0FF
:1015B00060C066F061C067F0E1EC12F0090E000156
:1015C000662500016E6F000E0001672100016F6F3C
:1015D00065EC16F0500E00016E25F66E080E000147
:1015E0006F21F76E0900F5CF77F00900F5CF78F09D
:1015F0000A00F5CF79F0000E0001696F640E686F84
:101600008CC066F00001676BE1EC12F0120E000175
:10161000662500016E6F000E0001672100016F6FEB
:10162000000E0001716F030E706F65EC16F0500E26
:1016300000016E25F66E080E00016F21F76E09009D
:10164000F5CF74F00900F5CF75F00A00F5CF76F00C
:10165000A6EC10F074C089F075C08AF076C08BF0EB
:10166000000E0001716F030E706F000E0001636FBA
:101670000A0E626F8CC060F00001616BA0EC14F088
:1016800060C06EF061C06FF065EC16F0500E0001A6
:101690006E25F66E080E00016F21F76E0900F5CF7A
:1016A00077F00900F5CF78F00A00F5CF79F089C01E
:1016B00074F08AC075F08BC076F0A6EC10F074C0A0
:1016C00086F075C087F076C088F086C074F087C059
:1016D00075F088C076F0000E0001776F000E0001F3
:1016E000786F3F0E0001796FA6EC10F074C083F0A4
:1016F00075C084F076C085F012000A0E00018C657A
:1017000074D0000E0001716F030E706F000E0001A7
:10171000636F0A0E626F8CC060F00001616BA0EC19
:1017200014F060C06EF061C06FF065EC16F0500E02
:1017300000016E25F66E080E00016F21F76E09009C
:10174000F5CF77F00900F5CF78F00A00F5CF79F002
:10175000000E0001696F0A0E686F8CC066F0000110
:10176000676BE1EC12F0090E0001662500016E6F57
:10177000000E0001672100016F6F000E0001716F04
:10178000030E706F65EC16F0500E00016E25F66EBC
:10179000080E00016F21F76E0900F5CF74F0090003
:1017A000F5CF75F00A00F5CF76F0A6EC10F074C016
:1017B00089F075C08AF076C08BF089C074F08AC059
:1017C00075F08BC076F0000E0001776F000E0001FF
:1017D000786F3F0E0001796FA6EC10F074C083F0B3
:1017E00075C084F076C085F0120000018C51030DA5
:1017F000500EF324F66E080EF420F76E0900F5CFB4
:1018000074F00900F5CF75F00A00F5CF76F0000E00
:101810000001776F000E0001786F3F0E0001796FB5
:10182000A6EC10F074C083F075C084F076C085F02B
:1018300012008FC093F00001946B956B00018E3500
:101840000001933701E39481000193510001986FE7
:1018500092C093F00001946B956B000191350001EB
:10186000933701E39481000193510001976F0001C8
:1018700098510001D8B411D0000197510001985D32
:10188000D8B012D00001985100080001972500013E
:10189000936F180E0001936507D090C08DF091C032
:1018A0008EF092C08FF01200000197510001D8B461
:1018B00011D0000198510001975DD8B012D00001FD
:1018C00097510008000198250001936F180E000140
:1018D000936507D08DC08DF08EC08EF08FC08FF0D5
:1018E0001200060E0001966F00018FAF02D00001BA
:1018F000968F000192AF02D00001968D00018E8F6D
:10190000FF0E00018D17FF0E00018E17000E000163
:101910008F170001918FFF0E00019017FF0E00013D
:101920009117000E00019217000197510001985D78
:10193000D8B025D00001D890903791379237000168
:1019400097070001985100019719D8B411D00001F0
:10195000960796C093F0070E00019317D8B408D0ED
:10196000E9D70001D8908F338E338D330001982B47
:101970000001975100019819D8B42BD0F2D700017B
:1019800098510001975DD8B024D00001D8908D37D0
:101990008E378F3700019807000198510001971981
:1019A000D8B411D00001960796C093F0070E00013D
:1019B0009317D8B408D0E9D70001D8909233913367
:1019C00090330001972B0001975100019819D8A47A
:1019D000F3D7000196AF12D0FF0E00018D1BFF0E52
:1019E00000018E1BFF0E00018F1B010E00018D27D1
:1019F000000E00018E23000E00018F23000196AD22
:101A000012D0FF0E0001901BFF0E0001911BFF0E74
:101A10000001921B010E00019027000E000191238E
:101A2000000E00019223000E0001966F00018D51FF
:101A30000001902700018E510001912300018F5178
:101A400000019223000192AF15D0FF0E0001901B00
:101A5000FF0E0001911BFF0E0001921B010E000101
:101A60009027000E00019123000E00019223010E29
:101A70000001966F90C060F091C061F092C062F07A
:101A800098C063F096C064F0F7EC11F060C08DF080
:101A900061C08EF062C08FF012009E96C6AEEDD08F
:101AA000C69E000E346E000E0001DC6F000E0001B9
:101AB000DD6F120025B2120023C0DCF024C0DDF07F
:101AC00023C0D9FF24C0DAFFDF50336E20EE01F0CF
:101AD0002350D9262450DA22DECF2EF0DDCF2FF08E
:101AE000060E2326000E2422F90E231808E1000E0C
:101AF0002418D8A404D0F30E236E000E246E259073
:101B00002150231804E122502418D8B42582C5801E
:101B1000020E346E1200C582020E346E1200C5AC85
:101B200005D0272A040EACEC17F01200D8903F30F5
:101B3000026E3E30016E0150C96E3EA003D00B0E06
:101B4000346E1200030E346E1200C5AC05D0272A85
:101B5000040EACEC17F01200C5823EC001F03FC08D
:101B600002F002C001F0026A060E0116000E021613
:101B7000F00E01103E6E02503F6E3E80010E316E3F
:101B8000020E346E12003104D8B41AD02EC0D9FF20
:101B90002FC0DAFFDECF3EF0DDCF3FF020EE03F0C6
:101BA0002E50D9262F50DA22DECFDAF0DDCFDBF04F
:101BB00020EE02F02E50D9262F50DA22DF50326E5E
:101BC0003EC0C9FF3EA003D0050E346E1200030EC6
:101BD000346E1200C5AC06D0272AC59C050EACECAD
:101BE00017F0120032063228D8A40ED0060E2E2688
:101BF000000E2F22332E04D0000EACEC17F0120092
:101C0000C582020E346E1200DAC0D9FFDBC0DAFFE3
:101C1000DF50C96E0001DA4BDB2B1200C5AC06D0D9
:101C2000272A040EACEC17F0C59C1200C586080EDE
:101C3000346E1200080E346EC5861200DAC0D9FF69
:101C4000DBC0DAFFC9CFDFFF0001DA4BDB2B010E6F
:101C5000325ED8B404D0C59A060E346E03D0C58A5D
:101C600061EC17F0C5881200000EACEC17F0120002
:101C7000272A060EACEC17F012003450000AD8B434
:101C800019D7010AD8B447D7030AD8B47CD7010AB8
:101C9000D8B4A0D7070AD8B4E7D7010AD8B4BED7BA
:101CA000030AD8B4C7D7010AD8B4DED70F0AD8B40C
:101CB000C5D7020AD8B433D7010AD8B446D7D8D783
:101CC00062C066F00001676B686B0001613500015E
:101CD000663701E367810001665100016E6F000104
:101CE0006E51D8A40AD0000E0001606F000E616F23
:101CF000000E626F000E636F120065C066F0000197
:101D0000676B686B000164350001663701E367812A
:101D10000001665100016D6F00016D51D8A40AD019
:101D2000000E0001606F000E616F000E626F000E0A
:101D3000636F12000001618FFF0E00016017FF0E3C
:101D400000016117000E000162170001648FFF0E91
:101D500000016317FF0E00016417000E00016517F4
:101D6000000E0001696F000E6A6F000E6B6F000EAF
:101D70006C6F7F0E00016E5F00016D51980F0001C6
:101D80006E5F180E00016D6F0001D89069376A37D9
:101D90006B376C37000163510001605D00016451D5
:101DA000000161590001655100016259D8A00ED0AF
:101DB000000163510001605F000164510001615B3B
:101DC000000165510001625B000169810001D8904A
:101DD00060376137623700016D2FD6D700016EAFD3
:101DE0001AD000016E51800A970FD8B00AD0000EA9
:101DF0000001606F000E616F000E626F000E636F76
:101E000012000001D8906C336B336A3369330001E0
:101E10006E3FF7D71BD0170E00016E6512D0000E73
:101E20000001606F000E616F000E626F000E636F45
:101E300012000001D89069376A376B376C370001A0
:101E40006E0700016E510001D8A4F3D769C060F09D
:101E50006AC061F06BC062F06CC063F012000001F8
:101E60006235633500016B6F00016B51D8A40AD055
:101E7000000E0001606F000E616F000E626F000EB9
:101E8000636F120000016535663500016A6F00015D
:101E90006A51D8A40AD0000E0001606F000E616F75
:101EA000000E626F000E636F12000001628FFF0E62
:101EB00000016017FF0E6117FF0E6217000E631717
:101EC0000001658FFF0E00016317FF0E6417FF0E00
:101ED0006517000E6617000E0001666F000E676F33
:101EE000000E686F000E696F7F0E00016B5F0001CE
:101EF0006A51A00F00016B5F200E00016A6F0001A4
:101F0000D890663767376837693700016351000139
:101F1000605D0001645100016159000165510001DB
:101F200062590001665100016359D8A012D0000126
:101F300063510001605F000164510001615B0001B9
:101F400065510001625B000166510001635B0001A5
:101F500066810001D89060376137623763370001CE
:101F60006A2FCDD700016BAF1AD000016B51800AE8
:101F70009F0FD8B00AD0000E0001606F000E616F95
:101F8000000E626F000E636F12000001D89069337B
:101F900068336733663300016B3FF7D71BD01F0EE2
:101FA00000016B6512D0000E0001606F000E616FC2
:101FB000000E626F000E636F12000001D89066374A
:101FC00067376837693700016B0700016B51000103
:101FD000D8A4F3D766C060F067C061F068C062F053
:101FE00069C063F012000600FACF0DF0FBCF0EF0CF
:101FF000E9CF0FF0EACF10F0E1CF11F0E2CF12F00D
:10200000D9CF13F0DACF14F0F3CF15F0F4CF16F0E8
:10201000F6CF17F0F7CF18F0F8CF19F0F5CF1AF088
:1020200040C01BF041C01CF042C01DF043C01EF078
:102030009DBC9EAC04D0C1EC17F09E9C61D0F2BA5E
:10204000F2A404D090EC17F0F2945AD0A0B8A1A852
:1020500004D0BFEC17F0A19853D0A0B6A1A604D02D
:10206000C0EC17F0A1964CD09DB69EA604D04DECC6
:102070000DF09E9645D09DB89EA804D0FBEC16F0BE
:102080009E983ED09DBA9EAA04D09BEC17F09E9AD3
:1020900037D09DB09EA004D0BBEC17F09E9030D0FE
:1020A000F2B6F2A006D0BCEC17F081CF1FF0F29090
:1020B00027D0F2B8F2A204D0CCEC15F0F29220D0E6
:1020C000F0B6F0A004D0BEEC17F0F09019D0F0B844
:1020D000F0A204D0BDEC17F0F09212D0A0B0A1A0F5
:1020E00002D0A1900DD0A0B2A1A204D0E4EC16F0D1
:1020F000A19206D09DB29EA203D0BAEC17F09E9298
:102100001EC043F01DC042F01CC041F01BC040F097
:102110001AC0F5FF19C0F8FF18C0F7FF17C0F6FF87
:1021200016C0F4FF15C0F3FF14C0DAFF13C0D9FFC7
:1021300012C0E2FF11C0E1FF10C0EAFF0FC0E9FFCB
:102140000EC0FBFF0DC0FAFF4092110076C07AF07E
:1021500000017B6B7C6B0001753500017A3701E370
:102160007B8100017A5100017D6F00017D51D8A46F
:102170000AD0000E0001746F000E0001756F000E92
:102180000001766F120079C07AF000017B6B7C6BE6
:102190000001783500017A3701E37B8100017A5133
:1021A0000001826F00018251D8A40AD0000E000104
:1021B000746F000E0001756F000E0001766F120043
:1021C000000182517B0F00017D2776C082F0000163
:1021D00079510001821B800E000182170001758F6A
:1021E0000001788FFF0E00017717FF0E00017817AE
:1021F000000E00017917000E00017E6F000E000135
:102200007F6F000E0001806F070E0001816F0001DB
:1022100074A10CD00001775100017E270001785194
:1022200000017F2300017951000180230001D89033
:102230007633753374330001D89077377837793730
:102240000001812FE4D7090E0001816F000174A104
:102250000CD00001775100017E2700017851000168
:102260007F2300017951000180230001D89076334B
:10227000753374330001D89080337F337E3300018F
:10228000812FE4D77EC060F07FC061F080C062F033
:102290007DC063F082C064F0F7EC11F060C074F0B0
:1022A00061C075F062C076F012008CC08EF0000143
:1022B0008F6B906B00018B3500018E3701E38F81AE
:1022C00000018E510001986F00019851D8A40AD0E6
:1022D000000E00018A6F000E8B6F000E8C6F000ED7
:1022E0008D6F1200170E00018E6F8AC08FF08BC0A9
:1022F00090F08CC091F000018E290001926F05D002
:102300000001D890913390338F330001922FF8D78A
:1023100000018F510001936F00018B8FFF0E0001B0
:102320008A17FF0E00018B17000E00018C170001A9
:102330008A510001946F00018B510001956F0001DB
:102340008C510001966F0001976B8E0E0001985F13
:10235000000198AF1AD000019851800A8F0FD8B0B1
:102360000AD0000E00018A6F000E8B6F000E8C6F7A
:10237000000E8D6F12000001D8909733963395337D
:1023800094330001983FF7D71BD0170E00019865D2
:1023900012D0000E00018A6F000E8B6F000E8C6F42
:1023A000000E8D6F12000001D89094379537963744
:1023B000973700019807000198510001D8A4F3D77E
:1023C000000193510001D8B409D00001971F961F56
:1023D000951F946D000E95239623972394C08AF041
:1023E00095C08BF096C08CF097C08DF01200000164
:1023F00063510001D8B408D000016051000161119F
:1024000000016211D8A411D0000E0001606F000E0F
:102410000001616F000E0001626F12000001632B6A
:102420000001D890623361336033000E0001601503
:102430000001656F000E000161150001666FFE0E60
:10244000000162150001676F00016551000166110E
:1024500000016711D8B411D0E1D70001632B010E40
:1024600000016027000E00016123000E00016223BD
:102470000001D890623361336033000E00016015B3
:102480000001656F000E000161150001666FFF0E0F
:10249000000162150001676F0001655100016611BE
:1024A00000016711D8B408D0D8D700016307000134
:1024B000D890603761376237000161BF04D0020EE7
:1024C00000016361F2D7000163B102D00001619F96
:1024D0000001D890633300016351000162130001D1
:1024E00064510001D8B402D00001628F60C060F076
:1024F00061C061F062C062F01200000162AF1DD0E5
:1025000060C066F061C067F062C068F00001661FDD
:10251000671F681F662B000E67236823000E0001EB
:1025200066250001606F000E000167210001616FE8
:10253000800E000168210001626F000165AF1DD0AF
:1025400063C066F064C067F065C068F00001661F94
:10255000671F681F662B000E67236823000E0001AB
:1025600066250001636F000E000167210001646FA2
:10257000800E000168210001656F000E0001601BE4
:10258000000E0001611B800E0001621B000E0001A5
:10259000631B000E0001641B800E0001651B00011F
:1025A00063510001605D0001645100016159000147
:1025B000655100016259D8B002D0D8901200D8807D
:1025C0001200000E00016B6F000169AF08D000011E
:1025D000686D691FD8B0692B010E00016B6F000197
:1025E00067AF08D00001666D671FD8B0672B010E7A
:1025F00000016B1B000E00016D6F000E6C6F00017F
:10260000685100016911D8B42CD0010E00016A6F25
:1026100006D00001D8906837693700016A2B0001A5
:1026200069AFF7D70001D8906C376D37000168515A
:102630000001665D0001695100016759D8A00AD008
:10264000000168510001665F000169510001675B8C
:1026500000016C810001D8906933683300016A2F52
:10266000E1D700016B510001D8B405D000016C6DB9
:102670006D1FD8B06D2B6CC066F06DC067F0120096
:10268000000E0001686F000E696F000E6A6F000E89
:102690006B6F0001645100016511000166110001BA
:1026A0006711D8B442D0010E00016C6F08D0000150
:1026B000D890643765376637673700016C2B0001A7
:1026C00067AFF5D70001D890683769376A376B373D
:1026D000000164510001605D000165510001615914
:1026E0000001665100016259000167510001635900
:1026F000D8A012D0000164510001605F0001655153
:102700000001615B000166510001625B00016751DD
:102710000001635B000168810001D8906733663374
:102720006533643300016C2FCDD768C060F069C099
:1027300061F06AC062F06BC063F012006DEC17F0DC
:10274000F28EF28C48EC16F00009D8A4FBD7770E75
:102750000001606F080E0001616F80EC16F048EC1C
:1027600016F00009D8A4FBD7400E77EC15F0818A4B
:10277000030EE82EFED700F0819A48EC16F000090F
:10278000D8A4FBD7400E77EC15F0C50E00019F6F63
:10279000000E0001A06F830E0001A16F080E000162
:1027A000A26FD7C0A3F0D8C0A4F0D9C0A5F048EC60
:1027B00004F048EC16F00009D8A4FBD7C50E0001C0
:1027C000606F000E0001616FCCEC16F0020E00018C
:1027D000C46F450E0001C36FA90EE82EFED7C32FAC
:1027E000FCD7C42FFAD700D0C2D70450D8B405D034
:1027F000015002100310D8A40CD0000E016E000E80
:10280000026E000E036E1200042AD89003320232C8
:102810000132000E0114066E000E0214076EFE0E49
:102820000314086E065007100810D8B40CD0ECD76B
:10283000042A010E0126000E0222000E0322D89067
:10284000033202320132000E0114066E000E021431
:10285000076EFF0E0314086E065007100810D8B458
:1028600006D0E6D70406D89001360236033602BEFB
:1028700003D0020E0460F6D704A0029ED890043262
:10288000045003120550D8A4038E01C001F002C009
:1028900002F003C003F012000001636FF00E831614
:1028A000F00E9516959A9598959C8C9A8C988C9C80
:1028B00082EC17F0300E0BEC16F0050E54EC17F00E
:1028C000300E0BEC16F0010E54EC17F0320E0BEC40
:1028D00016F048EC16F00009D8A4FBD748EC16F027
:1028E0000009D8A4FBD7000163510BEC16F048ECAB
:1028F00016F00009D8A4FBD7080E0BEC16F048EC34
:1029000016F00009D8A4FBD70F0E0BEC16F048EC1C
:1029100016F00009D8A4FBD7010E0BEC16F048EC1A
:1029200016F00009D8A4FBD7040E0BEC16F048EC07
:1029300016F00009D8A4FBD7800E77EC15F0120032
:10294000000E0001656F000161AF08D00001606DED
:10295000611FD8B0612B010E0001656F000163AFEC
:1029600005D00001626D631FD8B0632B0001625176
:1029700000016311D8B426D0010E0001646F06D0A7
:102980000001D890623763370001642B000163AF08
:10299000F7D7000162510001605D00016351000141
:1029A0006159D8A008D0000162510001605F0001A8
:1029B00063510001615B0001D89063336233000111
:1029C000642FE7D7000165510001D8B405D000019C
:1029D000606D611FD8B0612B60C060F061C061F0B4
:1029E000120000016451000165110001661100012F
:1029F0006711D8B437D0010E206E07D00001D890EF
:102A00006437653766376737202A000167AFF6D726
:102A1000000164510001605D0001655100016159D0
:102A200000016651000162590001675100016359BC
:102A3000D8A010D0000164510001605F0001655111
:102A40000001615B000166510001625B000167519A
:102A50000001635B0001D8906733663365336433EC
:102A6000202ED6D760C060F061C061F062C062F015
:102A700063C063F012008E0E206E07D00001D89064
:102A80006B336A3369336833202A000E00016815FE
:102A900000016C6F000E0001691500016D6F000EE2
:102AA00000016A1500016E6FFF0E00016B15000139
:102AB0006F6F00016C5100016D1100016E1100017A
:102AC0006F11D8A4DBD768C060F069C061F06AC03C
:102AD00062F020C063F0000E0001646FF7EC11F0AB
:102AE00060C068F061C069F062C06AF01200206ED8
:102AF000F00E9516F00E831620500001606F616B8A
:102B00000001608F040E0001626F000161356133C6
:102B100060330001622FF9D7000160510F0B83125F
:102B20008C9A8C98A0EC17F08C8CA0EC17F08C9CF5
:102B3000F00E831620500F0B8312A0EC17F08C8C34
:102B4000A0EC17F08C9C0F0E9512120000019C5106
:102B500000019D1100019E11D8B409D0000E0001A2
:102B60009C1B000E00019D1B800E00019E1B99C046
:102B70008DF09AC08EF09BC08FF09CC090F09DC0ED
:102B800091F09EC092F019EC0CF08DC099F08EC0BF
:102B90009AF08FC09BF01200F1AC07D0010EA4ECAC
:102BA00017F0B5EC17F0F19C1200B7EC17F0A8EC99
:102BB00017F00C6E0C500001DE6FDF6BDEC009F009
:102BC000DFC00AF026EC17F009C0D7F00AC0D8F031
:102BD0000BC0D9F0F18C1200206EF00E9516F00E9D
:102BE000831620380F0B0F0B83128C888C9AA0EC65
:102BF00017F08C8CA0EC17F08C9CF00E83162050F4
:102C00000F0B8312A0EC17F08C8CA0EC17F08C9CAF
:102C10000F0E95121200206EF00E9516F00E831610
:102C200020380F0B0F0B83128C9A8C98A0EC17F0A6
:102C30008C8CA0EC17F08C9CF00E831620500F0BA0
:102C40008312A0EC17F08C8CA0EC17F08C9C0F0E6C
:102C500095121200959E8C8E280E4CEC14F048ECC8
:102C600016F00009D8A4FBD70F0E0BEC16F048ECB9
:102C700016F00009D8A4FBD7060E0BEC16F048ECB2
:102C800016F00009D8A4FBD7000E77EC15F012005F
:102C90008C8A8C98A0EC17F08C8CA0EC17F083A693
:102CA0000AD08C9CA0EC17F08C8CA0EC17F08C9CBC
:102CB0008C9A010E12008C9CA0EC17F08C8CA0EC6E
:102CC00017F08C9C8C9A000E120000016E510001CE
:102CD0007003F3CF72F0F4CF73F000016E51000176
:102CE0007103F3500001732700016F51000170035D
:102CF000F3500001732772C06EF073C06FF01200C2
:102D000010D048EC16F00009D8A4FBD760C0F6FF3D
:102D100061C0F7FF0800F550ECEC15F00001604BC6
:102D2000612B60C0F6FF61C0F7FF0800F550000995
:102D3000D8B41200E6D701EE00F0320EEE6AE806D3
:102D4000FDE100EECFF02A0EEE6AE806FDE100EEAE
:102D500021F01F0EEE6AE806FDE140904092000E61
:102D6000F86E00019EEF13F0000160510001611147
:102D700000016211D8B409D0000E0001601B000EE2
:102D80000001611B800E0001621B60C060F061C029
:102D900061F062C062F012000FD048EC16F000093A
:102DA000D8A4FBD760C0D9FF61C0DAFFDF50ECECDC
:102DB00015F00001604B612B60C0D9FF61C0DAFFE4
:102DC000DF50D8B41200E9D72950B36E28C0B2FF43
:102DD0000001E0510001E111D8B4120001D8120045
:102DE00005000001FA6EE051FD6EE151FE6EF850F3
:102DF000FF6EFA501200080E376012D03850010DE5
:102E0000CF0EF324D96E000EF420DA6EDF50AD6ED3
:102E1000382A070E386402D0000E386E372A1200A6
:102E20009D9812000001616F000E0001606F3A0E64
:102E30000001616107D02F0E0001616503D0010E12
:102E40000001606F60C020F02030120009C001F066
:102E50000AC002F0036A8E0E046E000E056EF5ECD9
:102E600013F001C009F002C00AF003C00BF0120019
:102E7000450ED56E000E0001616F000E606F8AEC8A
:102E800017F0F294F28AB3EC17F01200D09E9F9CD8
:102E9000F194A298A2969F969F989F9A9F90F190E6
:102EA000A290A2929F9212000001606F0D0E206E00
:102EB000FC0EE82EFED7202EFCD70001602FF6D79F
:102EC0001200060E2E26000E2F22332E03D0040EE3
:102ED000346E1200010E346E120046EC17F078ECDE
:102EE00017F096EC17F02AEC16F038EC17F01200F9
:102EF000939A9380F18CF292F288C180C182C1844E
:102F0000C1861200140E206E7A0EE82EFED7202EF7
:102F1000FCD7120000016151D76E60C0D6FF1200CD
:102F2000B0EC17F03B2A010E3A6E1200600ED36E21
:102F3000000E9B6E1200ABA21200AB9EAB8E120075
:102F4000060EE82EFED71200016E01C0D6FF120059
:102F5000D6CF01F001501200C584000E346E12006D
:102F600030C0D6FF1200D58E1200D58E1200D59E2D
:102F700012001200120012001200120012001200C1
:042F80001200120029
:020000040020DA
:08000000FFFFFFFFFFFFFFFF00
:020000040030CA
:0E000000000B1F1FFF8185FF0FC00FE00F4098
:00000001FF
